{
  "contractName": "NFTest",
  "abi": [
    {
      "inputs": [],
      "stateMutability": "nonpayable",
      "type": "constructor"
    },
    {
      "anonymous": false,
      "inputs": [
        {
          "indexed": true,
          "internalType": "address",
          "name": "owner",
          "type": "address"
        },
        {
          "indexed": true,
          "internalType": "address",
          "name": "approved",
          "type": "address"
        },
        {
          "indexed": true,
          "internalType": "uint256",
          "name": "tokenId",
          "type": "uint256"
        }
      ],
      "name": "Approval",
      "type": "event"
    },
    {
      "anonymous": false,
      "inputs": [
        {
          "indexed": true,
          "internalType": "address",
          "name": "owner",
          "type": "address"
        },
        {
          "indexed": true,
          "internalType": "address",
          "name": "operator",
          "type": "address"
        },
        {
          "indexed": false,
          "internalType": "bool",
          "name": "approved",
          "type": "bool"
        }
      ],
      "name": "ApprovalForAll",
      "type": "event"
    },
    {
      "anonymous": false,
      "inputs": [
        {
          "indexed": false,
          "internalType": "uint256",
          "name": "id",
          "type": "uint256"
        }
      ],
      "name": "NewToken",
      "type": "event"
    },
    {
      "anonymous": false,
      "inputs": [
        {
          "indexed": true,
          "internalType": "address",
          "name": "previousOwner",
          "type": "address"
        },
        {
          "indexed": true,
          "internalType": "address",
          "name": "newOwner",
          "type": "address"
        }
      ],
      "name": "OwnershipTransferred",
      "type": "event"
    },
    {
      "anonymous": false,
      "inputs": [
        {
          "indexed": false,
          "internalType": "uint256",
          "name": "tokenId",
          "type": "uint256"
        },
        {
          "indexed": false,
          "internalType": "uint256",
          "name": "price",
          "type": "uint256"
        }
      ],
      "name": "TokenAvailable",
      "type": "event"
    },
    {
      "anonymous": false,
      "inputs": [
        {
          "indexed": false,
          "internalType": "uint256",
          "name": "tokenId",
          "type": "uint256"
        }
      ],
      "name": "TokenBurned",
      "type": "event"
    },
    {
      "anonymous": false,
      "inputs": [
        {
          "indexed": false,
          "internalType": "uint256",
          "name": "tokenId",
          "type": "uint256"
        },
        {
          "indexed": false,
          "internalType": "uint256",
          "name": "price",
          "type": "uint256"
        }
      ],
      "name": "TokenPurchased",
      "type": "event"
    },
    {
      "anonymous": false,
      "inputs": [
        {
          "indexed": false,
          "internalType": "uint256",
          "name": "tokenId",
          "type": "uint256"
        }
      ],
      "name": "TokenUnavailable",
      "type": "event"
    },
    {
      "anonymous": false,
      "inputs": [
        {
          "indexed": false,
          "internalType": "uint256",
          "name": "tokenId",
          "type": "uint256"
        },
        {
          "indexed": false,
          "internalType": "uint8",
          "name": "usage",
          "type": "uint8"
        }
      ],
      "name": "TokenUsed",
      "type": "event"
    },
    {
      "anonymous": false,
      "inputs": [
        {
          "indexed": true,
          "internalType": "address",
          "name": "from",
          "type": "address"
        },
        {
          "indexed": true,
          "internalType": "address",
          "name": "to",
          "type": "address"
        },
        {
          "indexed": true,
          "internalType": "uint256",
          "name": "tokenId",
          "type": "uint256"
        }
      ],
      "name": "Transfer",
      "type": "event"
    },
    {
      "inputs": [
        {
          "internalType": "address",
          "name": "to",
          "type": "address"
        },
        {
          "internalType": "uint256",
          "name": "tokenId",
          "type": "uint256"
        }
      ],
      "name": "approve",
      "outputs": [],
      "stateMutability": "nonpayable",
      "type": "function"
    },
    {
      "inputs": [
        {
          "internalType": "address",
          "name": "owner",
          "type": "address"
        }
      ],
      "name": "balanceOf",
      "outputs": [
        {
          "internalType": "uint256",
          "name": "",
          "type": "uint256"
        }
      ],
      "stateMutability": "view",
      "type": "function",
      "constant": true
    },
    {
      "inputs": [
        {
          "internalType": "uint256",
          "name": "tokenId",
          "type": "uint256"
        }
      ],
      "name": "getApproved",
      "outputs": [
        {
          "internalType": "address",
          "name": "",
          "type": "address"
        }
      ],
      "stateMutability": "view",
      "type": "function",
      "constant": true
    },
    {
      "inputs": [
        {
          "internalType": "address",
          "name": "owner",
          "type": "address"
        },
        {
          "internalType": "address",
          "name": "operator",
          "type": "address"
        }
      ],
      "name": "isApprovedForAll",
      "outputs": [
        {
          "internalType": "bool",
          "name": "",
          "type": "bool"
        }
      ],
      "stateMutability": "view",
      "type": "function",
      "constant": true
    },
    {
      "inputs": [],
      "name": "name",
      "outputs": [
        {
          "internalType": "string",
          "name": "",
          "type": "string"
        }
      ],
      "stateMutability": "view",
      "type": "function",
      "constant": true
    },
    {
      "inputs": [
        {
          "internalType": "uint256",
          "name": "",
          "type": "uint256"
        }
      ],
      "name": "nftToOwner",
      "outputs": [
        {
          "internalType": "address",
          "name": "",
          "type": "address"
        }
      ],
      "stateMutability": "view",
      "type": "function",
      "constant": true
    },
    {
      "inputs": [
        {
          "internalType": "uint256",
          "name": "",
          "type": "uint256"
        }
      ],
      "name": "nftToPrice",
      "outputs": [
        {
          "internalType": "uint256",
          "name": "",
          "type": "uint256"
        }
      ],
      "stateMutability": "view",
      "type": "function",
      "constant": true
    },
    {
      "inputs": [
        {
          "internalType": "uint256",
          "name": "",
          "type": "uint256"
        }
      ],
      "name": "nftToState",
      "outputs": [
        {
          "internalType": "uint16",
          "name": "",
          "type": "uint16"
        }
      ],
      "stateMutability": "view",
      "type": "function",
      "constant": true
    },
    {
      "inputs": [
        {
          "internalType": "uint256",
          "name": "",
          "type": "uint256"
        }
      ],
      "name": "nftToUsage",
      "outputs": [
        {
          "internalType": "uint8",
          "name": "",
          "type": "uint8"
        }
      ],
      "stateMutability": "view",
      "type": "function",
      "constant": true
    },
    {
      "inputs": [
        {
          "internalType": "uint256",
          "name": "",
          "type": "uint256"
        }
      ],
      "name": "nfts",
      "outputs": [
        {
          "internalType": "uint256",
          "name": "id",
          "type": "uint256"
        },
        {
          "internalType": "string",
          "name": "tokenURI",
          "type": "string"
        }
      ],
      "stateMutability": "view",
      "type": "function",
      "constant": true
    },
    {
      "inputs": [],
      "name": "owner",
      "outputs": [
        {
          "internalType": "address",
          "name": "",
          "type": "address"
        }
      ],
      "stateMutability": "view",
      "type": "function",
      "constant": true
    },
    {
      "inputs": [
        {
          "internalType": "uint256",
          "name": "tokenId",
          "type": "uint256"
        }
      ],
      "name": "ownerOf",
      "outputs": [
        {
          "internalType": "address",
          "name": "",
          "type": "address"
        }
      ],
      "stateMutability": "view",
      "type": "function",
      "constant": true
    },
    {
      "inputs": [],
      "name": "renounceOwnership",
      "outputs": [],
      "stateMutability": "nonpayable",
      "type": "function"
    },
    {
      "inputs": [
        {
          "internalType": "address",
          "name": "from",
          "type": "address"
        },
        {
          "internalType": "address",
          "name": "to",
          "type": "address"
        },
        {
          "internalType": "uint256",
          "name": "tokenId",
          "type": "uint256"
        }
      ],
      "name": "safeTransferFrom",
      "outputs": [],
      "stateMutability": "nonpayable",
      "type": "function"
    },
    {
      "inputs": [
        {
          "internalType": "address",
          "name": "from",
          "type": "address"
        },
        {
          "internalType": "address",
          "name": "to",
          "type": "address"
        },
        {
          "internalType": "uint256",
          "name": "tokenId",
          "type": "uint256"
        },
        {
          "internalType": "bytes",
          "name": "_data",
          "type": "bytes"
        }
      ],
      "name": "safeTransferFrom",
      "outputs": [],
      "stateMutability": "nonpayable",
      "type": "function"
    },
    {
      "inputs": [
        {
          "internalType": "address",
          "name": "operator",
          "type": "address"
        },
        {
          "internalType": "bool",
          "name": "approved",
          "type": "bool"
        }
      ],
      "name": "setApprovalForAll",
      "outputs": [],
      "stateMutability": "nonpayable",
      "type": "function"
    },
    {
      "inputs": [],
      "name": "symbol",
      "outputs": [
        {
          "internalType": "string",
          "name": "",
          "type": "string"
        }
      ],
      "stateMutability": "view",
      "type": "function",
      "constant": true
    },
    {
      "inputs": [
        {
          "internalType": "address",
          "name": "from",
          "type": "address"
        },
        {
          "internalType": "address",
          "name": "to",
          "type": "address"
        },
        {
          "internalType": "uint256",
          "name": "tokenId",
          "type": "uint256"
        }
      ],
      "name": "transferFrom",
      "outputs": [],
      "stateMutability": "nonpayable",
      "type": "function"
    },
    {
      "inputs": [
        {
          "internalType": "address",
          "name": "newOwner",
          "type": "address"
        }
      ],
      "name": "transferOwnership",
      "outputs": [],
      "stateMutability": "nonpayable",
      "type": "function"
    },
    {
      "inputs": [
        {
          "internalType": "address",
          "name": "to",
          "type": "address"
        }
      ],
      "name": "safeMint",
      "outputs": [],
      "stateMutability": "nonpayable",
      "type": "function"
    },
    {
      "inputs": [
        {
          "internalType": "uint256",
          "name": "tokenId",
          "type": "uint256"
        }
      ],
      "name": "tokenURI",
      "outputs": [
        {
          "internalType": "string",
          "name": "",
          "type": "string"
        }
      ],
      "stateMutability": "view",
      "type": "function",
      "constant": true
    },
    {
      "inputs": [
        {
          "internalType": "bytes4",
          "name": "interfaceId",
          "type": "bytes4"
        }
      ],
      "name": "supportsInterface",
      "outputs": [
        {
          "internalType": "bool",
          "name": "",
          "type": "bool"
        }
      ],
      "stateMutability": "view",
      "type": "function",
      "constant": true
    },
    {
      "inputs": [
        {
          "internalType": "string",
          "name": "url",
          "type": "string"
        }
      ],
      "name": "setUrl",
      "outputs": [
        {
          "internalType": "string",
          "name": "",
          "type": "string"
        }
      ],
      "stateMutability": "nonpayable",
      "type": "function"
    },
    {
      "inputs": [],
      "name": "getUrl",
      "outputs": [
        {
          "internalType": "string",
          "name": "",
          "type": "string"
        }
      ],
      "stateMutability": "view",
      "type": "function",
      "constant": true
    },
    {
      "inputs": [
        {
          "internalType": "uint256",
          "name": "newPrice",
          "type": "uint256"
        }
      ],
      "name": "setPrice",
      "outputs": [
        {
          "internalType": "uint256",
          "name": "",
          "type": "uint256"
        }
      ],
      "stateMutability": "nonpayable",
      "type": "function"
    },
    {
      "inputs": [],
      "name": "getPrice",
      "outputs": [
        {
          "internalType": "uint256",
          "name": "",
          "type": "uint256"
        }
      ],
      "stateMutability": "view",
      "type": "function",
      "constant": true
    },
    {
      "inputs": [],
      "name": "getOwner",
      "outputs": [
        {
          "internalType": "address",
          "name": "",
          "type": "address"
        }
      ],
      "stateMutability": "view",
      "type": "function",
      "constant": true
    },
    {
      "inputs": [],
      "name": "getBalance",
      "outputs": [
        {
          "internalType": "uint256",
          "name": "",
          "type": "uint256"
        }
      ],
      "stateMutability": "view",
      "type": "function",
      "constant": true
    },
    {
      "inputs": [],
      "name": "getEth",
      "outputs": [
        {
          "internalType": "uint256",
          "name": "",
          "type": "uint256"
        }
      ],
      "stateMutability": "nonpayable",
      "type": "function"
    },
    {
      "inputs": [
        {
          "internalType": "address",
          "name": "recipient",
          "type": "address"
        }
      ],
      "name": "allocateNft",
      "outputs": [
        {
          "internalType": "uint256",
          "name": "",
          "type": "uint256"
        }
      ],
      "stateMutability": "nonpayable",
      "type": "function"
    },
    {
      "inputs": [],
      "name": "buyNft",
      "outputs": [
        {
          "internalType": "uint256",
          "name": "",
          "type": "uint256"
        }
      ],
      "stateMutability": "payable",
      "type": "function",
      "payable": true
    },
    {
      "inputs": [
        {
          "internalType": "address",
          "name": "owner",
          "type": "address"
        }
      ],
      "name": "getNftByOwner",
      "outputs": [
        {
          "internalType": "uint256[]",
          "name": "",
          "type": "uint256[]"
        }
      ],
      "stateMutability": "view",
      "type": "function",
      "constant": true
    },
    {
      "inputs": [
        {
          "internalType": "uint256",
          "name": "tokenId",
          "type": "uint256"
        }
      ],
      "name": "getNftState",
      "outputs": [
        {
          "internalType": "uint16",
          "name": "",
          "type": "uint16"
        }
      ],
      "stateMutability": "view",
      "type": "function",
      "constant": true
    },
    {
      "inputs": [
        {
          "internalType": "uint256",
          "name": "tokenId",
          "type": "uint256"
        },
        {
          "internalType": "uint16",
          "name": "state",
          "type": "uint16"
        }
      ],
      "name": "setNftState",
      "outputs": [
        {
          "internalType": "uint16",
          "name": "",
          "type": "uint16"
        }
      ],
      "stateMutability": "nonpayable",
      "type": "function"
    },
    {
      "inputs": [
        {
          "internalType": "uint256",
          "name": "tokenId",
          "type": "uint256"
        }
      ],
      "name": "getNftUsage",
      "outputs": [
        {
          "internalType": "uint8",
          "name": "",
          "type": "uint8"
        }
      ],
      "stateMutability": "view",
      "type": "function",
      "constant": true
    },
    {
      "inputs": [
        {
          "internalType": "uint256",
          "name": "tokenId",
          "type": "uint256"
        }
      ],
      "name": "useToken",
      "outputs": [
        {
          "internalType": "uint8",
          "name": "",
          "type": "uint8"
        }
      ],
      "stateMutability": "nonpayable",
      "type": "function"
    },
    {
      "inputs": [
        {
          "internalType": "uint256",
          "name": "tokenId",
          "type": "uint256"
        },
        {
          "internalType": "uint256",
          "name": "newPrice",
          "type": "uint256"
        }
      ],
      "name": "allowTokenSale",
      "outputs": [
        {
          "internalType": "uint256",
          "name": "",
          "type": "uint256"
        }
      ],
      "stateMutability": "nonpayable",
      "type": "function"
    },
    {
      "inputs": [
        {
          "internalType": "uint256",
          "name": "tokenId",
          "type": "uint256"
        }
      ],
      "name": "isTokenAvailable",
      "outputs": [
        {
          "internalType": "uint256",
          "name": "",
          "type": "uint256"
        }
      ],
      "stateMutability": "view",
      "type": "function",
      "constant": true
    },
    {
      "inputs": [
        {
          "internalType": "uint256",
          "name": "tokenId",
          "type": "uint256"
        }
      ],
      "name": "disallowTokenSale",
      "outputs": [
        {
          "internalType": "uint256",
          "name": "",
          "type": "uint256"
        }
      ],
      "stateMutability": "nonpayable",
      "type": "function"
    },
    {
      "inputs": [
        {
          "internalType": "uint256",
          "name": "tokenId",
          "type": "uint256"
        }
      ],
      "name": "buyOwnedToken",
      "outputs": [
        {
          "internalType": "uint256",
          "name": "",
          "type": "uint256"
        }
      ],
      "stateMutability": "payable",
      "type": "function",
      "payable": true
    }
  ],
  "bytecode": "0x60806040523480156200001157600080fd5b506040518060400160405280600681526020017f4e465465737400000000000000000000000000000000000000000000000000008152506040518060400160405280600381526020017f50545400000000000000000000000000000000000000000000000000000000008152508160009080519060200190620000969291906200026d565b508060019080519060200190620000af9291906200026d565b505050620000d2620000c66200014560201b60201c565b6200014d60201b60201c565b33600960006101000a81548173ffffffffffffffffffffffffffffffffffffffff021916908373ffffffffffffffffffffffffffffffffffffffff1602179055506001600a81905550600a600c60006101000a81548160ff021916908360ff160217905550600a600b8190555062000382565b600033905090565b80600960006101000a81548173ffffffffffffffffffffffffffffffffffffffff021916908373ffffffffffffffffffffffffffffffffffffffff160217905550620001a481620001a760201b620021a91760201c565b50565b6000600760009054906101000a900473ffffffffffffffffffffffffffffffffffffffff16905081600760006101000a81548173ffffffffffffffffffffffffffffffffffffffff021916908373ffffffffffffffffffffffffffffffffffffffff1602179055508173ffffffffffffffffffffffffffffffffffffffff168173ffffffffffffffffffffffffffffffffffffffff167f8be0079c531659141344cd1fd0a4f28419497f9722a3daafe3b4186f6b6457e060405160405180910390a35050565b8280546200027b906200034c565b90600052602060002090601f0160209004810192826200029f5760008555620002eb565b82601f10620002ba57805160ff1916838001178555620002eb565b82800160010185558215620002eb579182015b82811115620002ea578251825591602001919060010190620002cd565b5b509050620002fa9190620002fe565b5090565b5b8082111562000319576000816000905550600101620002ff565b5090565b7f4e487b7100000000000000000000000000000000000000000000000000000000600052602260045260246000fd5b600060028204905060018216806200036557607f821691505b602082108114156200037c576200037b6200031d565b5b50919050565b61525180620003926000396000f3fe60806040526004361061023b5760003560e01c8063715018a61161012e578063b88d4fde116100ab578063db290b341161006f578063db290b341461095d578063e69257c21461099a578063e985e9c5146109b8578063f2fde38b146109f5578063fdd560c014610a1e5761023b565b8063b88d4fde14610864578063c1e808d41461088d578063c87b56dd146108ca578063cb05b93e14610907578063d6bd8727146109325761023b565b806391b7f5ed116100f257806391b7f5ed1461076b57806395d89b41146107a857806398d5fdca146107d3578063a101e72d146107fe578063a22cb4651461083b5761023b565b8063715018a6146106845780637c50c4981461069b578063813a69e5146106d8578063893d20e8146107155780638da5cb5b146107405761023b565b806340d097c3116101bc5780635aabef13116101805780635aabef13146105535780636352211e1461059057806363a6fd28146105cd578063702cbbae1461060a57806370a08231146106475761023b565b806340d097c31461044a57806342842e0e14610473578063483d91081461049c5780635051092c146104d957806351d5b014146105165761023b565b806315303c411161020357806315303c411461033957806323b872dd14610376578063252498a21461039f578063265aa621146103dc57806338cb6b721461041a5761023b565b806301ffc9a71461024057806306fdde031461027d578063081812fc146102a8578063095ea7b3146102e557806312065fe01461030e575b600080fd5b34801561024c57600080fd5b50610267600480360381019061026291906138c9565b610a5b565b6040516102749190613911565b60405180910390f35b34801561028957600080fd5b50610292610a6d565b60405161029f91906139c5565b60405180910390f35b3480156102b457600080fd5b506102cf60048036038101906102ca9190613a1d565b610aff565b6040516102dc9190613a8b565b60405180910390f35b3480156102f157600080fd5b5061030c60048036038101906103079190613ad2565b610b84565b005b34801561031a57600080fd5b50610323610c9c565b6040516103309190613b21565b60405180910390f35b34801561034557600080fd5b50610360600480360381019061035b9190613a1d565b610d20565b60405161036d9190613b58565b60405180910390f35b34801561038257600080fd5b5061039d60048036038101906103989190613b73565b610d40565b005b3480156103ab57600080fd5b506103c660048036038101906103c19190613cfb565b610da0565b6040516103d391906139c5565b60405180910390f35b3480156103e857600080fd5b5061040360048036038101906103fe9190613a1d565b610ec7565b604051610411929190613d44565b60405180910390f35b610434600480360381019061042f9190613a1d565b610f83565b6040516104419190613b21565b60405180910390f35b34801561045657600080fd5b50610471600480360381019061046c9190613d74565b61120b565b005b34801561047f57600080fd5b5061049a60048036038101906104959190613b73565b6112a7565b005b3480156104a857600080fd5b506104c360048036038101906104be9190613da1565b6112c7565b6040516104d09190613b21565b60405180910390f35b3480156104e557600080fd5b5061050060048036038101906104fb9190613d74565b611407565b60405161050d9190613b21565b60405180910390f35b34801561052257600080fd5b5061053d60048036038101906105389190613d74565b611495565b60405161054a9190613e9f565b60405180910390f35b34801561055f57600080fd5b5061057a60048036038101906105759190613a1d565b6115e8565b6040516105879190613b21565b60405180910390f35b34801561059c57600080fd5b506105b760048036038101906105b29190613a1d565b611600565b6040516105c49190613a8b565b60405180910390f35b3480156105d957600080fd5b506105f460048036038101906105ef9190613a1d565b6116b2565b6040516106019190613ede565b60405180910390f35b34801561061657600080fd5b50610631600480360381019061062c9190613a1d565b6116d3565b60405161063e9190613b21565b60405180910390f35b34801561065357600080fd5b5061066e60048036038101906106699190613d74565b6116f0565b60405161067b9190613b21565b60405180910390f35b34801561069057600080fd5b506106996117a8565b005b3480156106a757600080fd5b506106c260048036038101906106bd9190613a1d565b611830565b6040516106cf9190613ede565b60405180910390f35b3480156106e457600080fd5b506106ff60048036038101906106fa9190613f25565b61185b565b60405161070c9190613ede565b60405180910390f35b34801561072157600080fd5b5061072a61193f565b6040516107379190613a8b565b60405180910390f35b34801561074c57600080fd5b50610755611969565b6040516107629190613a8b565b60405180910390f35b34801561077757600080fd5b50610792600480360381019061078d9190613a1d565b611993565b60405161079f9190613b21565b60405180910390f35b3480156107b457600080fd5b506107bd611a22565b6040516107ca91906139c5565b60405180910390f35b3480156107df57600080fd5b506107e8611ab4565b6040516107f59190613b21565b60405180910390f35b34801561080a57600080fd5b5061082560048036038101906108209190613a1d565b611abe565b6040516108329190613b58565b60405180910390f35b34801561084757600080fd5b50610862600480360381019061085d9190613f91565b611ae8565b005b34801561087057600080fd5b5061088b60048036038101906108869190614072565b611afe565b005b34801561089957600080fd5b506108b460048036038101906108af9190613a1d565b611b60565b6040516108c19190613a8b565b60405180910390f35b3480156108d657600080fd5b506108f160048036038101906108ec9190613a1d565b611b93565b6040516108fe91906139c5565b60405180910390f35b34801561091357600080fd5b5061091c611ba5565b6040516109299190613b21565b60405180910390f35b34801561093e57600080fd5b50610947611c98565b60405161095491906139c5565b60405180910390f35b34801561096957600080fd5b50610984600480360381019061097f9190613a1d565b611d2a565b6040516109919190613b21565b60405180910390f35b6109a2611e26565b6040516109af9190613b21565b60405180910390f35b3480156109c457600080fd5b506109df60048036038101906109da91906140f5565b611e7b565b6040516109ec9190613911565b60405180910390f35b348015610a0157600080fd5b50610a1c6004803603810190610a179190613d74565b611f0f565b005b348015610a2a57600080fd5b50610a456004803603810190610a409190613a1d565b612007565b604051610a529190613b58565b60405180910390f35b6000610a668261226f565b9050919050565b606060008054610a7c90614164565b80601f0160208091040260200160405190810160405280929190818152602001828054610aa890614164565b8015610af55780601f10610aca57610100808354040283529160200191610af5565b820191906000526020600020905b815481529060010190602001808311610ad857829003601f168201915b5050505050905090565b6000610b0a82612351565b610b49576040517f08c379a0000000000000000000000000000000000000000000000000000000008152600401610b4090614208565b60405180910390fd5b6004600083815260200190815260200160002060009054906101000a900473ffffffffffffffffffffffffffffffffffffffff169050919050565b6000610b8f82611600565b90508073ffffffffffffffffffffffffffffffffffffffff168373ffffffffffffffffffffffffffffffffffffffff161415610c00576040517f08c379a0000000000000000000000000000000000000000000000000000000008152600401610bf79061429a565b60405180910390fd5b8073ffffffffffffffffffffffffffffffffffffffff16610c1f6123bd565b73ffffffffffffffffffffffffffffffffffffffff161480610c4e5750610c4d81610c486123bd565b611e7b565b5b610c8d576040517f08c379a0000000000000000000000000000000000000000000000000000000008152600401610c849061432c565b60405180910390fd5b610c9783836123c5565b505050565b6000610ca66123bd565b73ffffffffffffffffffffffffffffffffffffffff16610cc4611969565b73ffffffffffffffffffffffffffffffffffffffff1614610d1a576040517f08c379a0000000000000000000000000000000000000000000000000000000008152600401610d1190614398565b60405180910390fd5b47905090565b600f6020528060005260406000206000915054906101000a900460ff1681565b610d51610d4b6123bd565b8261247e565b610d90576040517f08c379a0000000000000000000000000000000000000000000000000000000008152600401610d879061442a565b60405180910390fd5b610d9b83838361255c565b505050565b6060610daa6123bd565b73ffffffffffffffffffffffffffffffffffffffff16610dc8611969565b73ffffffffffffffffffffffffffffffffffffffff1614610e1e576040517f08c379a0000000000000000000000000000000000000000000000000000000008152600401610e1590614398565b60405180910390fd5b81600d9080519060200190610e3492919061377a565b50600d8054610e4290614164565b80601f0160208091040260200160405190810160405280929190818152602001828054610e6e90614164565b8015610ebb5780601f10610e9057610100808354040283529160200191610ebb565b820191906000526020600020905b815481529060010190602001808311610e9e57829003601f168201915b50505050509050919050565b60138181548110610ed757600080fd5b9060005260206000209060020201600091509050806000015490806001018054610f0090614164565b80601f0160208091040260200160405190810160405280929190818152602001828054610f2c90614164565b8015610f795780601f10610f4e57610100808354040283529160200191610f79565b820191906000526020600020905b815481529060010190602001808311610f5c57829003601f168201915b5050505050905082565b600080601160008481526020019081526020016000205411610fda576040517f08c379a0000000000000000000000000000000000000000000000000000000008152600401610fd190614496565b60405180910390fd5b6011600083815260200190815260200160002054341015611030576040517f08c379a000000000000000000000000000000000000000000000000000000000815260040161102790614502565b60405180910390fd5b600061103b83611600565b905061104881338561255c565b600060116000858152602001908152602001600020819055508073ffffffffffffffffffffffffffffffffffffffff166108fc6064600b54606461108c9190614551565b346110979190614585565b6110a1919061460e565b9081150290604051600060405180830381858888f193505050501580156110cc573d6000803e3d6000fd5b5033600e600085815260200190815260200160002060006101000a81548173ffffffffffffffffffffffffffffffffffffffff021916908373ffffffffffffffffffffffffffffffffffffffff160217905550601260003373ffffffffffffffffffffffffffffffffffffffff1673ffffffffffffffffffffffffffffffffffffffff168152602001908152602001600020600081548092919061116f9061463f565b9190505550601260008273ffffffffffffffffffffffffffffffffffffffff1673ffffffffffffffffffffffffffffffffffffffff16815260200190815260200160002060008154809291906111c490614688565b91905055507f8e9ad85f153412974b951156ecd7f4153ae7ae208664792e8a5f8a711786b93883346040516111fa9291906146b2565b60405180910390a182915050919050565b6112136123bd565b73ffffffffffffffffffffffffffffffffffffffff16611231611969565b73ffffffffffffffffffffffffffffffffffffffff1614611287576040517f08c379a000000000000000000000000000000000000000000000000000000000815260040161127e90614398565b60405180910390fd5b61129a8161129560086127c3565b6127d1565b6112a460086127ef565b50565b6112c283838360405180602001604052806000815250611afe565b505050565b6000600e600084815260200190815260200160002060009054906101000a900473ffffffffffffffffffffffffffffffffffffffff1673ffffffffffffffffffffffffffffffffffffffff163373ffffffffffffffffffffffffffffffffffffffff161461136a576040517f08c379a000000000000000000000000000000000000000000000000000000000815260040161136190614727565b60405180910390fd5b600082116113ad576040517f08c379a00000000000000000000000000000000000000000000000000000000081526004016113a490614793565b60405180910390fd5b8160116000858152602001908152602001600020819055507f455d4282f61e3b6b6e1b85c74eb1fac052df79bdf92a2800faf55cb102cf26d383836040516113f69291906146b2565b60405180910390a181905092915050565b60006114116123bd565b73ffffffffffffffffffffffffffffffffffffffff1661142f611969565b73ffffffffffffffffffffffffffffffffffffffff1614611485576040517f08c379a000000000000000000000000000000000000000000000000000000000815260040161147c90614398565b60405180910390fd5b61148e82612805565b9050919050565b60606000601260008473ffffffffffffffffffffffffffffffffffffffff1673ffffffffffffffffffffffffffffffffffffffff1681526020019081526020016000205467ffffffffffffffff8111156114f2576114f1613bd0565b5b6040519080825280602002602001820160405280156115205781602001602082028036833780820191505090505b5090506000805b6013805490508110156115dd578473ffffffffffffffffffffffffffffffffffffffff16600e600083815260200190815260200160002060009054906101000a900473ffffffffffffffffffffffffffffffffffffffff1673ffffffffffffffffffffffffffffffffffffffff1614156115ca57808383815181106115af576115ae6147b3565b5b60200260200101818152505081806115c69061463f565b9250505b80806115d59061463f565b915050611527565b508192505050919050565b60116020528060005260406000206000915090505481565b6000806002600084815260200190815260200160002060009054906101000a900473ffffffffffffffffffffffffffffffffffffffff169050600073ffffffffffffffffffffffffffffffffffffffff168173ffffffffffffffffffffffffffffffffffffffff1614156116a9576040517f08c379a00000000000000000000000000000000000000000000000000000000081526004016116a090614854565b60405180910390fd5b80915050919050565b60106020528060005260406000206000915054906101000a900461ffff1681565b600060116000838152602001908152602001600020549050919050565b60008073ffffffffffffffffffffffffffffffffffffffff168273ffffffffffffffffffffffffffffffffffffffff161415611761576040517f08c379a0000000000000000000000000000000000000000000000000000000008152600401611758906148e6565b60405180910390fd5b600360008373ffffffffffffffffffffffffffffffffffffffff1673ffffffffffffffffffffffffffffffffffffffff168152602001908152602001600020549050919050565b6117b06123bd565b73ffffffffffffffffffffffffffffffffffffffff166117ce611969565b73ffffffffffffffffffffffffffffffffffffffff1614611824576040517f08c379a000000000000000000000000000000000000000000000000000000000815260040161181b90614398565b60405180910390fd5b61182e6000612905565b565b60006010600083815260200190815260200160002060009054906101000a900461ffff169050919050565b6000600e600084815260200190815260200160002060009054906101000a900473ffffffffffffffffffffffffffffffffffffffff1673ffffffffffffffffffffffffffffffffffffffff163373ffffffffffffffffffffffffffffffffffffffff16146118fe576040517f08c379a00000000000000000000000000000000000000000000000000000000081526004016118f590614727565b60405180910390fd5b816010600085815260200190815260200160002060006101000a81548161ffff021916908361ffff16021790555061193583612007565b5081905092915050565b6000600960009054906101000a900473ffffffffffffffffffffffffffffffffffffffff16905090565b6000600760009054906101000a900473ffffffffffffffffffffffffffffffffffffffff16905090565b600061199d6123bd565b73ffffffffffffffffffffffffffffffffffffffff166119bb611969565b73ffffffffffffffffffffffffffffffffffffffff1614611a11576040517f08c379a0000000000000000000000000000000000000000000000000000000008152600401611a0890614398565b60405180910390fd5b81600a81905550600a549050919050565b606060018054611a3190614164565b80601f0160208091040260200160405190810160405280929190818152602001828054611a5d90614164565b8015611aaa5780601f10611a7f57610100808354040283529160200191611aaa565b820191906000526020600020905b815481529060010190602001808311611a8d57829003601f168201915b5050505050905090565b6000600a54905090565b6000600f600083815260200190815260200160002060009054906101000a900460ff169050919050565b611afa611af36123bd565b8383612952565b5050565b611b0f611b096123bd565b8361247e565b611b4e576040517f08c379a0000000000000000000000000000000000000000000000000000000008152600401611b459061442a565b60405180910390fd5b611b5a84848484612abf565b50505050565b600e6020528060005260406000206000915054906101000a900473ffffffffffffffffffffffffffffffffffffffff1681565b6060611b9e82612b1b565b9050919050565b6000611baf6123bd565b73ffffffffffffffffffffffffffffffffffffffff16611bcd611969565b73ffffffffffffffffffffffffffffffffffffffff1614611c23576040517f08c379a0000000000000000000000000000000000000000000000000000000008152600401611c1a90614398565b60405180910390fd5b6000479050600960009054906101000a900473ffffffffffffffffffffffffffffffffffffffff1673ffffffffffffffffffffffffffffffffffffffff166108fc829081150290604051600060405180830381858888f19350505050158015611c90573d6000803e3d6000fd5b508091505090565b6060600d8054611ca790614164565b80601f0160208091040260200160405190810160405280929190818152602001828054611cd390614164565b8015611d205780601f10611cf557610100808354040283529160200191611d20565b820191906000526020600020905b815481529060010190602001808311611d0357829003601f168201915b5050505050905090565b6000600e600083815260200190815260200160002060009054906101000a900473ffffffffffffffffffffffffffffffffffffffff1673ffffffffffffffffffffffffffffffffffffffff163373ffffffffffffffffffffffffffffffffffffffff1614611dcd576040517f08c379a0000000000000000000000000000000000000000000000000000000008152600401611dc490614727565b60405180910390fd5b600060116000848152602001908152602001600020819055507fb70a38097eac53991acaf690c374668559e0bdc5730f065ce8523467be99c0dd82604051611e159190613b21565b60405180910390a160009050919050565b6000600a54341015611e6d576040517f08c379a0000000000000000000000000000000000000000000000000000000008152600401611e6490614502565b60405180910390fd5b611e7633612805565b905090565b6000600560008473ffffffffffffffffffffffffffffffffffffffff1673ffffffffffffffffffffffffffffffffffffffff16815260200190815260200160002060008373ffffffffffffffffffffffffffffffffffffffff1673ffffffffffffffffffffffffffffffffffffffff16815260200190815260200160002060009054906101000a900460ff16905092915050565b611f176123bd565b73ffffffffffffffffffffffffffffffffffffffff16611f35611969565b73ffffffffffffffffffffffffffffffffffffffff1614611f8b576040517f08c379a0000000000000000000000000000000000000000000000000000000008152600401611f8290614398565b60405180910390fd5b600073ffffffffffffffffffffffffffffffffffffffff168173ffffffffffffffffffffffffffffffffffffffff161415611ffb576040517f08c379a0000000000000000000000000000000000000000000000000000000008152600401611ff290614978565b60405180910390fd5b61200481612905565b50565b6000600e600083815260200190815260200160002060009054906101000a900473ffffffffffffffffffffffffffffffffffffffff1673ffffffffffffffffffffffffffffffffffffffff163373ffffffffffffffffffffffffffffffffffffffff16146120aa576040517f08c379a00000000000000000000000000000000000000000000000000000000081526004016120a190614727565b60405180910390fd5b6000600f600084815260200190815260200160002060009054906101000a900460ff16905060008160ff1611612115576040517f08c379a000000000000000000000000000000000000000000000000000000000815260040161210c906149e4565b60405180910390fd5b7f84f1c9e319dccf8b08a9a91efdb5def79d85a7a1a513928248ab09c83e2b8a468382604051612146929190614a04565b60405180910390a1808061215990614a2d565b91505080600f600085815260200190815260200160002060006101000a81548160ff021916908360ff16021790555060008160ff1614156121a05761219e3384612c6d565b505b80915050919050565b6000600760009054906101000a900473ffffffffffffffffffffffffffffffffffffffff16905081600760006101000a81548173ffffffffffffffffffffffffffffffffffffffff021916908373ffffffffffffffffffffffffffffffffffffffff1602179055508173ffffffffffffffffffffffffffffffffffffffff168173ffffffffffffffffffffffffffffffffffffffff167f8be0079c531659141344cd1fd0a4f28419497f9722a3daafe3b4186f6b6457e060405160405180910390a35050565b60007f80ac58cd000000000000000000000000000000000000000000000000000000007bffffffffffffffffffffffffffffffffffffffffffffffffffffffff1916827bffffffffffffffffffffffffffffffffffffffffffffffffffffffff1916148061233a57507f5b5e139f000000000000000000000000000000000000000000000000000000007bffffffffffffffffffffffffffffffffffffffffffffffffffffffff1916827bffffffffffffffffffffffffffffffffffffffffffffffffffffffff1916145b8061234a575061234982612db6565b5b9050919050565b60008073ffffffffffffffffffffffffffffffffffffffff166002600084815260200190815260200160002060009054906101000a900473ffffffffffffffffffffffffffffffffffffffff1673ffffffffffffffffffffffffffffffffffffffff1614159050919050565b600033905090565b816004600083815260200190815260200160002060006101000a81548173ffffffffffffffffffffffffffffffffffffffff021916908373ffffffffffffffffffffffffffffffffffffffff160217905550808273ffffffffffffffffffffffffffffffffffffffff1661243883611600565b73ffffffffffffffffffffffffffffffffffffffff167f8c5be1e5ebec7d5bd14f71427d1e84f3dd0314c0f7b2291e5b200ac8c7c3b92560405160405180910390a45050565b600061248982612351565b6124c8576040517f08c379a00000000000000000000000000000000000000000000000000000000081526004016124bf90614ac9565b60405180910390fd5b60006124d383611600565b90508073ffffffffffffffffffffffffffffffffffffffff168473ffffffffffffffffffffffffffffffffffffffff16148061254257508373ffffffffffffffffffffffffffffffffffffffff1661252a84610aff565b73ffffffffffffffffffffffffffffffffffffffff16145b8061255357506125528185611e7b565b5b91505092915050565b8273ffffffffffffffffffffffffffffffffffffffff1661257c82611600565b73ffffffffffffffffffffffffffffffffffffffff16146125d2576040517f08c379a00000000000000000000000000000000000000000000000000000000081526004016125c990614b5b565b60405180910390fd5b600073ffffffffffffffffffffffffffffffffffffffff168273ffffffffffffffffffffffffffffffffffffffff161415612642576040517f08c379a000000000000000000000000000000000000000000000000000000000815260040161263990614bed565b60405180910390fd5b61264d838383612e20565b6126586000826123c5565b6001600360008573ffffffffffffffffffffffffffffffffffffffff1673ffffffffffffffffffffffffffffffffffffffff16815260200190815260200160002060008282546126a89190614551565b925050819055506001600360008473ffffffffffffffffffffffffffffffffffffffff1673ffffffffffffffffffffffffffffffffffffffff16815260200190815260200160002060008282546126ff9190614c0d565b92505081905550816002600083815260200190815260200160002060006101000a81548173ffffffffffffffffffffffffffffffffffffffff021916908373ffffffffffffffffffffffffffffffffffffffff160217905550808273ffffffffffffffffffffffffffffffffffffffff168473ffffffffffffffffffffffffffffffffffffffff167fddf252ad1be2c89b69c2b068fc378daa952ba7f163c4a11628f55a4df523b3ef60405160405180910390a46127be838383612e30565b505050565b600081600001549050919050565b6127eb828260405180602001604052806000815250612e35565b5050565b6001816000016000828254019250508190555050565b60008061281260086127c3565b905061281e60086127ef565b6128288382612e90565b60006128338261306a565b905061283f828261309e565b6127106010600084815260200190815260200160002060006101000a81548161ffff021916908361ffff160217905550600060116000848152602001908152602001600020819055506128928483613112565b601360405180604001604052808481526020018381525090806001815401808255809150506001900390600052602060002090600202016000909190919091506000820151816000015560208201518160010190805190602001906128f892919061377a565b5050508192505050919050565b80600960006101000a81548173ffffffffffffffffffffffffffffffffffffffff021916908373ffffffffffffffffffffffffffffffffffffffff16021790555061294f816121a9565b50565b8173ffffffffffffffffffffffffffffffffffffffff168373ffffffffffffffffffffffffffffffffffffffff1614156129c1576040517f08c379a00000000000000000000000000000000000000000000000000000000081526004016129b890614caf565b60405180910390fd5b80600560008573ffffffffffffffffffffffffffffffffffffffff1673ffffffffffffffffffffffffffffffffffffffff16815260200190815260200160002060008473ffffffffffffffffffffffffffffffffffffffff1673ffffffffffffffffffffffffffffffffffffffff16815260200190815260200160002060006101000a81548160ff0219169083151502179055508173ffffffffffffffffffffffffffffffffffffffff168373ffffffffffffffffffffffffffffffffffffffff167f17307eab39ab6107e8899845ad3d59bd9653f200f220920489ca2b5937696c3183604051612ab29190613911565b60405180910390a3505050565b612aca84848461255c565b612ad68484848461322f565b612b15576040517f08c379a0000000000000000000000000000000000000000000000000000000008152600401612b0c90614d41565b60405180910390fd5b50505050565b6060612b2682612351565b612b65576040517f08c379a0000000000000000000000000000000000000000000000000000000008152600401612b5c90614dd3565b60405180910390fd5b6000600660008481526020019081526020016000208054612b8590614164565b80601f0160208091040260200160405190810160405280929190818152602001828054612bb190614164565b8015612bfe5780601f10612bd357610100808354040283529160200191612bfe565b820191906000526020600020905b815481529060010190602001808311612be157829003601f168201915b505050505090506000612c0f6133b7565b9050600081511415612c25578192505050612c68565b600082511115612c5a578082604051602001612c42929190614e2f565b60405160208183030381529060405292505050612c68565b612c63846133ce565b925050505b919050565b6000612c7882613475565b601260008473ffffffffffffffffffffffffffffffffffffffff1673ffffffffffffffffffffffffffffffffffffffff1681526020019081526020016000206000815480929190612cc890614688565b91905055506000600e600084815260200190815260200160002060006101000a81548173ffffffffffffffffffffffffffffffffffffffff021916908373ffffffffffffffffffffffffffffffffffffffff160217905550601260008073ffffffffffffffffffffffffffffffffffffffff1673ffffffffffffffffffffffffffffffffffffffff1681526020019081526020016000206000815480929190612d709061463f565b91905055507f0c526103b8f47af5516191d0c89a598755bd00faa211a3cb52e4c2cc782f7fe282604051612da49190613b21565b60405180910390a16000905092915050565b60007f01ffc9a7000000000000000000000000000000000000000000000000000000007bffffffffffffffffffffffffffffffffffffffffffffffffffffffff1916827bffffffffffffffffffffffffffffffffffffffffffffffffffffffff1916149050919050565b612e2b838383613481565b505050565b505050565b612e3f8383612e90565b612e4c600084848461322f565b612e8b576040517f08c379a0000000000000000000000000000000000000000000000000000000008152600401612e8290614d41565b60405180910390fd5b505050565b600073ffffffffffffffffffffffffffffffffffffffff168273ffffffffffffffffffffffffffffffffffffffff161415612f00576040517f08c379a0000000000000000000000000000000000000000000000000000000008152600401612ef790614e9f565b60405180910390fd5b612f0981612351565b15612f49576040517f08c379a0000000000000000000000000000000000000000000000000000000008152600401612f4090614f0b565b60405180910390fd5b612f5560008383612e20565b6001600360008473ffffffffffffffffffffffffffffffffffffffff1673ffffffffffffffffffffffffffffffffffffffff1681526020019081526020016000206000828254612fa59190614c0d565b92505081905550816002600083815260200190815260200160002060006101000a81548173ffffffffffffffffffffffffffffffffffffffff021916908373ffffffffffffffffffffffffffffffffffffffff160217905550808273ffffffffffffffffffffffffffffffffffffffff16600073ffffffffffffffffffffffffffffffffffffffff167fddf252ad1be2c89b69c2b068fc378daa952ba7f163c4a11628f55a4df523b3ef60405160405180910390a461306660008383612e30565b5050565b6060600d61307783613486565b604051602001613088929190614fbf565b6040516020818303038152906040529050919050565b6130a782612351565b6130e6576040517f08c379a00000000000000000000000000000000000000000000000000000000081526004016130dd90615055565b60405180910390fd5b8060066000848152602001908152602001600020908051906020019061310d92919061377a565b505050565b81600e600083815260200190815260200160002060006101000a81548173ffffffffffffffffffffffffffffffffffffffff021916908373ffffffffffffffffffffffffffffffffffffffff160217905550600c60009054906101000a900460ff16600f600083815260200190815260200160002060006101000a81548160ff021916908360ff160217905550601260008373ffffffffffffffffffffffffffffffffffffffff1673ffffffffffffffffffffffffffffffffffffffff16815260200190815260200160002060008154809291906131ef9061463f565b91905055507f0b0e1efe43e1d56f854d6465fc899ed56ba06463eebf7e2ba402df15e6ee7e7e816040516132239190613b21565b60405180910390a15050565b60006132508473ffffffffffffffffffffffffffffffffffffffff166135e7565b156133aa578373ffffffffffffffffffffffffffffffffffffffff1663150b7a026132796123bd565b8786866040518563ffffffff1660e01b815260040161329b94939291906150ca565b6020604051808303816000875af19250505080156132d757506040513d601f19601f820116820180604052508101906132d4919061512b565b60015b61335a573d8060008114613307576040519150601f19603f3d011682016040523d82523d6000602084013e61330c565b606091505b50600081511415613352576040517f08c379a000000000000000000000000000000000000000000000000000000000815260040161334990614d41565b60405180910390fd5b805181602001fd5b63150b7a0260e01b7bffffffffffffffffffffffffffffffffffffffffffffffffffffffff1916817bffffffffffffffffffffffffffffffffffffffffffffffffffffffff1916149150506133af565b600190505b949350505050565b606060405180602001604052806000815250905090565b60606133d982612351565b613418576040517f08c379a000000000000000000000000000000000000000000000000000000000815260040161340f906151ca565b60405180910390fd5b60006134226133b7565b90506000815111613442576040518060200160405280600081525061346d565b8061344c84613486565b60405160200161345d929190614e2f565b6040516020818303038152906040525b915050919050565b61347e8161360a565b50565b505050565b606060008214156134ce576040518060400160405280600181526020017f300000000000000000000000000000000000000000000000000000000000000081525090506135e2565b600082905060005b600082146135005780806134e99061463f565b915050600a826134f9919061460e565b91506134d6565b60008167ffffffffffffffff81111561351c5761351b613bd0565b5b6040519080825280601f01601f19166020018201604052801561354e5781602001600182028036833780820191505090505b5090505b600085146135db576001826135679190614551565b9150600a8561357691906151ea565b60306135829190614c0d565b60f81b818381518110613598576135976147b3565b5b60200101907effffffffffffffffffffffffffffffffffffffffffffffffffffffffffffff1916908160001a905350600a856135d4919061460e565b9450613552565b8093505050505b919050565b6000808273ffffffffffffffffffffffffffffffffffffffff163b119050919050565b6136138161365d565b600060066000838152602001908152602001600020805461363390614164565b90501461365a576006600082815260200190815260200160002060006136599190613800565b5b50565b600061366882611600565b905061367681600084612e20565b6136816000836123c5565b6001600360008373ffffffffffffffffffffffffffffffffffffffff1673ffffffffffffffffffffffffffffffffffffffff16815260200190815260200160002060008282546136d19190614551565b925050819055506002600083815260200190815260200160002060006101000a81549073ffffffffffffffffffffffffffffffffffffffff021916905581600073ffffffffffffffffffffffffffffffffffffffff168273ffffffffffffffffffffffffffffffffffffffff167fddf252ad1be2c89b69c2b068fc378daa952ba7f163c4a11628f55a4df523b3ef60405160405180910390a461377681600084612e30565b5050565b82805461378690614164565b90600052602060002090601f0160209004810192826137a857600085556137ef565b82601f106137c157805160ff19168380011785556137ef565b828001600101855582156137ef579182015b828111156137ee5782518255916020019190600101906137d3565b5b5090506137fc9190613840565b5090565b50805461380c90614164565b6000825580601f1061381e575061383d565b601f01602090049060005260206000209081019061383c9190613840565b5b50565b5b80821115613859576000816000905550600101613841565b5090565b6000604051905090565b600080fd5b600080fd5b60007fffffffff0000000000000000000000000000000000000000000000000000000082169050919050565b6138a681613871565b81146138b157600080fd5b50565b6000813590506138c38161389d565b92915050565b6000602082840312156138df576138de613867565b5b60006138ed848285016138b4565b91505092915050565b60008115159050919050565b61390b816138f6565b82525050565b60006020820190506139266000830184613902565b92915050565b600081519050919050565b600082825260208201905092915050565b60005b8381101561396657808201518184015260208101905061394b565b83811115613975576000848401525b50505050565b6000601f19601f8301169050919050565b60006139978261392c565b6139a18185613937565b93506139b1818560208601613948565b6139ba8161397b565b840191505092915050565b600060208201905081810360008301526139df818461398c565b905092915050565b6000819050919050565b6139fa816139e7565b8114613a0557600080fd5b50565b600081359050613a17816139f1565b92915050565b600060208284031215613a3357613a32613867565b5b6000613a4184828501613a08565b91505092915050565b600073ffffffffffffffffffffffffffffffffffffffff82169050919050565b6000613a7582613a4a565b9050919050565b613a8581613a6a565b82525050565b6000602082019050613aa06000830184613a7c565b92915050565b613aaf81613a6a565b8114613aba57600080fd5b50565b600081359050613acc81613aa6565b92915050565b60008060408385031215613ae957613ae8613867565b5b6000613af785828601613abd565b9250506020613b0885828601613a08565b9150509250929050565b613b1b816139e7565b82525050565b6000602082019050613b366000830184613b12565b92915050565b600060ff82169050919050565b613b5281613b3c565b82525050565b6000602082019050613b6d6000830184613b49565b92915050565b600080600060608486031215613b8c57613b8b613867565b5b6000613b9a86828701613abd565b9350506020613bab86828701613abd565b9250506040613bbc86828701613a08565b9150509250925092565b600080fd5b600080fd5b7f4e487b7100000000000000000000000000000000000000000000000000000000600052604160045260246000fd5b613c088261397b565b810181811067ffffffffffffffff82111715613c2757613c26613bd0565b5b80604052505050565b6000613c3a61385d565b9050613c468282613bff565b919050565b600067ffffffffffffffff821115613c6657613c65613bd0565b5b613c6f8261397b565b9050602081019050919050565b82818337600083830152505050565b6000613c9e613c9984613c4b565b613c30565b905082815260208101848484011115613cba57613cb9613bcb565b5b613cc5848285613c7c565b509392505050565b600082601f830112613ce257613ce1613bc6565b5b8135613cf2848260208601613c8b565b91505092915050565b600060208284031215613d1157613d10613867565b5b600082013567ffffffffffffffff811115613d2f57613d2e61386c565b5b613d3b84828501613ccd565b91505092915050565b6000604082019050613d596000830185613b12565b8181036020830152613d6b818461398c565b90509392505050565b600060208284031215613d8a57613d89613867565b5b6000613d9884828501613abd565b91505092915050565b60008060408385031215613db857613db7613867565b5b6000613dc685828601613a08565b9250506020613dd785828601613a08565b9150509250929050565b600081519050919050565b600082825260208201905092915050565b6000819050602082019050919050565b613e16816139e7565b82525050565b6000613e288383613e0d565b60208301905092915050565b6000602082019050919050565b6000613e4c82613de1565b613e568185613dec565b9350613e6183613dfd565b8060005b83811015613e92578151613e798882613e1c565b9750613e8483613e34565b925050600181019050613e65565b5085935050505092915050565b60006020820190508181036000830152613eb98184613e41565b905092915050565b600061ffff82169050919050565b613ed881613ec1565b82525050565b6000602082019050613ef36000830184613ecf565b92915050565b613f0281613ec1565b8114613f0d57600080fd5b50565b600081359050613f1f81613ef9565b92915050565b60008060408385031215613f3c57613f3b613867565b5b6000613f4a85828601613a08565b9250506020613f5b85828601613f10565b9150509250929050565b613f6e816138f6565b8114613f7957600080fd5b50565b600081359050613f8b81613f65565b92915050565b60008060408385031215613fa857613fa7613867565b5b6000613fb685828601613abd565b9250506020613fc785828601613f7c565b9150509250929050565b600067ffffffffffffffff821115613fec57613feb613bd0565b5b613ff58261397b565b9050602081019050919050565b600061401561401084613fd1565b613c30565b90508281526020810184848401111561403157614030613bcb565b5b61403c848285613c7c565b509392505050565b600082601f83011261405957614058613bc6565b5b8135614069848260208601614002565b91505092915050565b6000806000806080858703121561408c5761408b613867565b5b600061409a87828801613abd565b94505060206140ab87828801613abd565b93505060406140bc87828801613a08565b925050606085013567ffffffffffffffff8111156140dd576140dc61386c565b5b6140e987828801614044565b91505092959194509250565b6000806040838503121561410c5761410b613867565b5b600061411a85828601613abd565b925050602061412b85828601613abd565b9150509250929050565b7f4e487b7100000000000000000000000000000000000000000000000000000000600052602260045260246000fd5b6000600282049050600182168061417c57607f821691505b602082108114156141905761418f614135565b5b50919050565b7f4552433732313a20617070726f76656420717565727920666f72206e6f6e657860008201527f697374656e7420746f6b656e0000000000000000000000000000000000000000602082015250565b60006141f2602c83613937565b91506141fd82614196565b604082019050919050565b60006020820190508181036000830152614221816141e5565b9050919050565b7f4552433732313a20617070726f76616c20746f2063757272656e74206f776e6560008201527f7200000000000000000000000000000000000000000000000000000000000000602082015250565b6000614284602183613937565b915061428f82614228565b604082019050919050565b600060208201905081810360008301526142b381614277565b9050919050565b7f4552433732313a20617070726f76652063616c6c6572206973206e6f74206f7760008201527f6e6572206e6f7220617070726f76656420666f7220616c6c0000000000000000602082015250565b6000614316603883613937565b9150614321826142ba565b604082019050919050565b6000602082019050818103600083015261434581614309565b9050919050565b7f4f776e61626c653a2063616c6c6572206973206e6f7420746865206f776e6572600082015250565b6000614382602083613937565b915061438d8261434c565b602082019050919050565b600060208201905081810360008301526143b181614375565b9050919050565b7f4552433732313a207472616e736665722063616c6c6572206973206e6f74206f60008201527f776e6572206e6f7220617070726f766564000000000000000000000000000000602082015250565b6000614414603183613937565b915061441f826143b8565b604082019050919050565b6000602082019050818103600083015261444381614407565b9050919050565b7f546f6b656e206e6f7420617661696c61626c6500000000000000000000000000600082015250565b6000614480601383613937565b915061448b8261444a565b602082019050919050565b600060208201905081810360008301526144af81614473565b9050919050565b7f496e73756666696369656e742066756e64730000000000000000000000000000600082015250565b60006144ec601283613937565b91506144f7826144b6565b602082019050919050565b6000602082019050818103600083015261451b816144df565b9050919050565b7f4e487b7100000000000000000000000000000000000000000000000000000000600052601160045260246000fd5b600061455c826139e7565b9150614567836139e7565b92508282101561457a57614579614522565b5b828203905092915050565b6000614590826139e7565b915061459b836139e7565b9250817fffffffffffffffffffffffffffffffffffffffffffffffffffffffffffffffff04831182151516156145d4576145d3614522565b5b828202905092915050565b7f4e487b7100000000000000000000000000000000000000000000000000000000600052601260045260246000fd5b6000614619826139e7565b9150614624836139e7565b925082614634576146336145df565b5b828204905092915050565b600061464a826139e7565b91507fffffffffffffffffffffffffffffffffffffffffffffffffffffffffffffffff82141561467d5761467c614522565b5b600182019050919050565b6000614693826139e7565b915060008214156146a7576146a6614522565b5b600182039050919050565b60006040820190506146c76000830185613b12565b6146d46020830184613b12565b9392505050565b7f496e76616c696420746f6b656e206f776e657200000000000000000000000000600082015250565b6000614711601383613937565b915061471c826146db565b602082019050919050565b6000602082019050818103600083015261474081614704565b9050919050565b7f496e76616c696420746f6b656e20707269636500000000000000000000000000600082015250565b600061477d601383613937565b915061478882614747565b602082019050919050565b600060208201905081810360008301526147ac81614770565b9050919050565b7f4e487b7100000000000000000000000000000000000000000000000000000000600052603260045260246000fd5b7f4552433732313a206f776e657220717565727920666f72206e6f6e657869737460008201527f656e7420746f6b656e0000000000000000000000000000000000000000000000602082015250565b600061483e602983613937565b9150614849826147e2565b604082019050919050565b6000602082019050818103600083015261486d81614831565b9050919050565b7f4552433732313a2062616c616e636520717565727920666f7220746865207a6560008201527f726f206164647265737300000000000000000000000000000000000000000000602082015250565b60006148d0602a83613937565b91506148db82614874565b604082019050919050565b600060208201905081810360008301526148ff816148c3565b9050919050565b7f4f776e61626c653a206e6577206f776e657220697320746865207a65726f206160008201527f6464726573730000000000000000000000000000000000000000000000000000602082015250565b6000614962602683613937565b915061496d82614906565b604082019050919050565b6000602082019050818103600083015261499181614955565b9050919050565b7f546f6b656e207573616765206465706c65746564000000000000000000000000600082015250565b60006149ce601483613937565b91506149d982614998565b602082019050919050565b600060208201905081810360008301526149fd816149c1565b9050919050565b6000604082019050614a196000830185613b12565b614a266020830184613b49565b9392505050565b6000614a3882613b3c565b91506000821415614a4c57614a4b614522565b5b600182039050919050565b7f4552433732313a206f70657261746f7220717565727920666f72206e6f6e657860008201527f697374656e7420746f6b656e0000000000000000000000000000000000000000602082015250565b6000614ab3602c83613937565b9150614abe82614a57565b604082019050919050565b60006020820190508181036000830152614ae281614aa6565b9050919050565b7f4552433732313a207472616e736665722066726f6d20696e636f72726563742060008201527f6f776e6572000000000000000000000000000000000000000000000000000000602082015250565b6000614b45602583613937565b9150614b5082614ae9565b604082019050919050565b60006020820190508181036000830152614b7481614b38565b9050919050565b7f4552433732313a207472616e7366657220746f20746865207a65726f2061646460008201527f7265737300000000000000000000000000000000000000000000000000000000602082015250565b6000614bd7602483613937565b9150614be282614b7b565b604082019050919050565b60006020820190508181036000830152614c0681614bca565b9050919050565b6000614c18826139e7565b9150614c23836139e7565b9250827fffffffffffffffffffffffffffffffffffffffffffffffffffffffffffffffff03821115614c5857614c57614522565b5b828201905092915050565b7f4552433732313a20617070726f766520746f2063616c6c657200000000000000600082015250565b6000614c99601983613937565b9150614ca482614c63565b602082019050919050565b60006020820190508181036000830152614cc881614c8c565b9050919050565b7f4552433732313a207472616e7366657220746f206e6f6e20455243373231526560008201527f63656976657220696d706c656d656e7465720000000000000000000000000000602082015250565b6000614d2b603283613937565b9150614d3682614ccf565b604082019050919050565b60006020820190508181036000830152614d5a81614d1e565b9050919050565b7f45524337323155524953746f726167653a2055524920717565727920666f722060008201527f6e6f6e6578697374656e7420746f6b656e000000000000000000000000000000602082015250565b6000614dbd603183613937565b9150614dc882614d61565b604082019050919050565b60006020820190508181036000830152614dec81614db0565b9050919050565b600081905092915050565b6000614e098261392c565b614e138185614df3565b9350614e23818560208601613948565b80840191505092915050565b6000614e3b8285614dfe565b9150614e478284614dfe565b91508190509392505050565b7f4552433732313a206d696e7420746f20746865207a65726f2061646472657373600082015250565b6000614e89602083613937565b9150614e9482614e53565b602082019050919050565b60006020820190508181036000830152614eb881614e7c565b9050919050565b7f4552433732313a20746f6b656e20616c7265616479206d696e74656400000000600082015250565b6000614ef5601c83613937565b9150614f0082614ebf565b602082019050919050565b60006020820190508181036000830152614f2481614ee8565b9050919050565b60008190508160005260206000209050919050565b60008154614f4d81614164565b614f578186614df3565b94506001821660008114614f725760018114614f8357614fb6565b60ff19831686528186019350614fb6565b614f8c85614f2b565b60005b83811015614fae57815481890152600182019150602081019050614f8f565b838801955050505b50505092915050565b6000614fcb8285614f40565b9150614fd78284614dfe565b91508190509392505050565b7f45524337323155524953746f726167653a2055524920736574206f66206e6f6e60008201527f6578697374656e7420746f6b656e000000000000000000000000000000000000602082015250565b600061503f602e83613937565b915061504a82614fe3565b604082019050919050565b6000602082019050818103600083015261506e81615032565b9050919050565b600081519050919050565b600082825260208201905092915050565b600061509c82615075565b6150a68185615080565b93506150b6818560208601613948565b6150bf8161397b565b840191505092915050565b60006080820190506150df6000830187613a7c565b6150ec6020830186613a7c565b6150f96040830185613b12565b818103606083015261510b8184615091565b905095945050505050565b6000815190506151258161389d565b92915050565b60006020828403121561514157615140613867565b5b600061514f84828501615116565b91505092915050565b7f4552433732314d657461646174613a2055524920717565727920666f72206e6f60008201527f6e6578697374656e7420746f6b656e0000000000000000000000000000000000602082015250565b60006151b4602f83613937565b91506151bf82615158565b604082019050919050565b600060208201905081810360008301526151e3816151a7565b9050919050565b60006151f5826139e7565b9150615200836139e7565b9250826152105761520f6145df565b5b82820690509291505056fea26469706673582212206cbff4f01f601e6a5be0e04e6659a2232dc4a4c383019d2ccc7a998b02253ee664736f6c634300080c0033",
  "immutableReferences": {},
  "source": "// SPDX-License-Identifier: Unlicense\npragma solidity ^0.8.12;\n\nimport \"@openzeppelin/contracts/token/ERC721/ERC721.sol\";\nimport \"@openzeppelin/contracts/token/ERC721/extensions/ERC721Enumerable.sol\";\nimport \"@openzeppelin/contracts/token/ERC721/extensions/ERC721URIStorage.sol\";\nimport \"@openzeppelin/contracts/utils/Counters.sol\";\nimport \"@openzeppelin/contracts/access/Ownable.sol\";\nimport \"@openzeppelin/contracts/utils/Strings.sol\";\n\ncontract NFTest is ERC721URIStorage, Ownable {\n    using Counters for Counters.Counter;\n    Counters.Counter private _tokenIds;\n\n    function safeMint(address to) public onlyOwner {\n        _safeMint(to, _tokenIds.current());\n        _tokenIds.increment();\n    }\n\n    // START OVERRIDES\n    function _transferOwnership(address newOwner)\n        internal\n        override\n    {\n        _owner = newOwner;\n        super._transferOwnership(newOwner);\n    }\n\n    function _beforeTokenTransfer(address from, address to, uint256 tokenId)\n        internal\n        override\n    {\n        super._beforeTokenTransfer(from, to, tokenId);\n    }\n\n    function _burn(uint256 tokenId) \n        internal\n        override\n    {\n        super._burn(tokenId);\n    }\n\n    /**\n        Returns URI for specified tokenId\n    */\n    function tokenURI(uint256 tokenId)\n        public\n        view\n        override\n        returns (string memory)\n    {\n        return super.tokenURI(tokenId);\n    }\n\n    function supportsInterface(bytes4 interfaceId)\n        public\n        view\n        override\n        returns (bool)\n    {\n        return super.supportsInterface(interfaceId);\n    }\n    // END OVERRIDES\n\n    event NewToken(uint256 id);\n    event TokenAvailable(uint256 tokenId, uint price);\n    event TokenUnavailable(uint256 tokenId);\n    event TokenPurchased(uint256 tokenId, uint price);\n    event TokenUsed(uint256 tokenId, uint8 usage);\n    event TokenBurned(uint256 tokenId);\n    //event NftBought(address _seller, address _buyer, uint256 _price);\n\n    address private _owner;\n    uint private _price;\n    uint private _percentage;\n    uint8 private _usage;\n    string private _url;\n\n    mapping (uint256 => address) public nftToOwner;\n    mapping (uint256 => uint8) public nftToUsage;\n    mapping (uint256 => uint16) public nftToState;\n    mapping (uint256 => uint) public nftToPrice;\n    mapping (address => uint) ownerNftCount;\n    // TRACK BURNED TOKENS?\n\n    struct NFTs {\n        uint256 id;\n        string tokenURI;\n    }\n    NFTs[] public nfts;\n    \n    constructor () ERC721(\"NFTest\", \"PTT\")\n    {\n        _owner = msg.sender;\n        _price = 1;\n        _usage = 10;\n        _percentage = 10;\n    }\n    \n    /**\n        Sets URL\n     */\n    function setUrl(string memory url)\n        public \n        onlyOwner\n        returns (string memory)\n    {\n        _url = url;\n        return _url;\n    }\n\n    /**\n        Get URL\n     */\n    function getUrl()\n        public\n        view\n        returns (string memory)\n    {\n        return _url;\n    }\n\n    /**\n        Sets NFT price\n     */\n    function setPrice(uint newPrice)\n        public \n        onlyOwner\n        returns (uint)\n    {\n        _price = newPrice;\n        return _price;\n    }\n\n    /**\n        Get NFT price\n     */\n    function getPrice()\n        public\n        view\n        returns (uint)\n    {\n        return _price;\n    }\n\n    /**\n        Get contract owner\n     */\n    function getOwner()\n        public\n        view\n        returns (address)\n    {\n        return _owner;\n    }\n\n    /**\n        Gets ETH held by contract\n     */\n    function getBalance()\n        public\n        onlyOwner\n        view\n        returns (uint256)\n    {\n        return address(this).balance;\n    }\n    \n    /**\n        Transfers ETH held by contract to contract owner\n     */\n    function getEth()\n        public \n        onlyOwner\n        returns (uint256)\n    {\n        uint256 balance = address(this).balance;\n        payable(_owner).transfer(balance);\n\n        return balance;\n    }\n\n    /**\n        Utility --> Associates owner with NFT and updates NFT count\n     */\n    function associateNftWith(address owner, uint256 tokenId) \n        private\n    {\n        nftToOwner[tokenId] = owner;\n        nftToUsage[tokenId] = _usage;\n        ownerNftCount[owner]++;\n\n        emit NewToken(tokenId);\n    }\n\n    /**\n        Contract owner can create NFT at no cost\n        Sends to specified address\n     */\n    function allocateNft(address recipient) \n        public\n        onlyOwner\n        returns (uint256)\n    {\n        return createNft(recipient);\n    }\n\n    /**\n        Allows any address to buy an NFT\n     */\n    function buyNft() \n        external \n        payable \n        returns (uint256)\n    {\n        require(msg.value >= _price, \"Insufficient funds\");\n        return createNft(msg.sender);\n    }\n\n    /**\n        Utility --> Creates NFT\n     */\n    function createNft(address recipient) \n        private\n        returns (uint256)\n    {\n        uint256 newItemId = _tokenIds.current();\n        _tokenIds.increment();\n        _mint(recipient, newItemId);\n\n        string memory tokenUrl = createTokenURI(newItemId);\n        _setTokenURI(newItemId, tokenUrl);\n\n        nftToState[newItemId] = 10000;\n        nftToPrice[newItemId] = 0;\n\n        associateNftWith(recipient, newItemId);\n        nfts.push(NFTs(newItemId, tokenUrl));\n\n        return newItemId;\n    }\n\n    /**\n        Gets list of owners NFTs\n     */\n    function getNftByOwner(address owner) \n        external\n        view\n        returns (uint[] memory) \n    {\n        uint[] memory result = new uint[](ownerNftCount[owner]);\n        uint counter = 0;\n        for (uint i = 0; i < nfts.length; i++) {\n            if (nftToOwner[i] == owner) {\n                result[counter] = i;\n                counter++;\n            }\n        }\n        return result;\n    }\n\n    /**\n        Gets NFT state\n     */\n    function getNftState(uint256 tokenId) \n        external\n        view\n        returns (uint16) \n    {\n        return nftToState[tokenId];\n    }\n\n    /**\n        Sets NFT state\n     */\n    function setNftState(uint256 tokenId, uint16 state) \n        external\n        returns (uint16) \n    {\n        require(msg.sender == nftToOwner[tokenId], \"Invalid token owner\");\n        nftToState[tokenId] = state;\n\n        useToken(tokenId);\n\n        return state;\n    }\n\n    /**\n        Get remaining usage available for token\n     */\n    function getNftUsage(uint256 tokenId) \n        external\n        view\n        returns (uint8) \n    {\n        return nftToUsage[tokenId];\n    }\n\n    /**\n        Get remaining usage available for token\n     */\n    function useToken(uint256 tokenId) \n        public\n        returns (uint8) \n    {\n        require(msg.sender == nftToOwner[tokenId], \"Invalid token owner\");\n\n        uint8 usage = nftToUsage[tokenId];\n        require(usage > 0, \"Token usage depleted\");\n\n        emit TokenUsed(tokenId, usage);\n\n        usage--;\n        nftToUsage[tokenId] = usage;\n        if (usage == 0) {\n            burnToken(msg.sender, tokenId);\n        }\n        return usage;\n    }\n\n    /**\n        Allow token purchase\n     */\n    function allowTokenSale(uint256 tokenId, uint newPrice) \n        public\n        returns (uint) \n    {\n        require(msg.sender == nftToOwner[tokenId], \"Invalid token owner\");\n        require(newPrice > 0, \"Invalid token price\");\n\n        nftToPrice[tokenId] = newPrice;\n        emit TokenAvailable(tokenId, newPrice);\n\n        return newPrice;\n    }\n\n    /**\n        Is token available for purchase\n     */\n    function isTokenAvailable(uint256 tokenId) \n        public\n        view\n        returns (uint) \n    {\n        return nftToPrice[tokenId];\n    }\n\n    /**\n        Disallow token purchase\n     */\n    function disallowTokenSale(uint256 tokenId) \n        public\n        returns (uint) \n    {\n        require(msg.sender == nftToOwner[tokenId], \"Invalid token owner\");\n        \n        nftToPrice[tokenId] = 0;\n        emit TokenUnavailable(tokenId);\n\n        return 0;\n    }\n\n    /**\n        Purchase Token\n        https://stackoverflow.com/questions/67317392/how-to-transfer-a-nft-from-one-account-to-another-using-erc721\n     */\n    function buyOwnedToken(uint256 tokenId) \n        public\n        payable\n        returns (uint256) \n    {\n        require(nftToPrice[tokenId] > 0, \"Token not available\");\n        require(msg.value >= nftToPrice[tokenId], \"Insufficient funds\");\n       \n        address seller = ownerOf(tokenId);\n        _transfer(seller, msg.sender, tokenId);\n        nftToPrice[tokenId] = 0;\n\n        payable(seller).transfer( (msg.value * (100 - _percentage)) / 100 );\n        nftToOwner[tokenId] = msg.sender;\n        ownerNftCount[msg.sender]++;\n        ownerNftCount[seller]--;\n\n        emit TokenPurchased(tokenId, msg.value);\n\n        return tokenId;\n    }\n\n    /**\n        Utility --> Burn token\n     */\n    function burnToken(address owner, uint256 tokenId) \n        private\n        returns (uint) \n    {\n        _burn(tokenId);\n\n        ownerNftCount[owner]--;\n        nftToOwner[tokenId] = 0x0000000000000000000000000000000000000000;\n        ownerNftCount[0x0000000000000000000000000000000000000000]++;\n\n        emit TokenBurned(tokenId);\n\n        return 0;\n    }\n\n    /**\n        Utility --> Creates TokenURI\n     */\n    function createTokenURI(uint256 tokenId) \n        private\n        view\n        returns (string memory)\n    {\n        return string(abi.encodePacked(_url, Strings.toString(tokenId)));\n    }\n\n}",
  "sourcePath": "/Users/mnewman/Desktop/NFT_DEV/contracts/NFTest.sol",
  "compiler": {
    "name": "solc",
    "version": "0.8.12+commit.f00d7308.Emscripten.clang"
  },
  "schemaVersion": "3.4.5",
  "updatedAt": "2022-03-12T23:52:01.960Z",
  "networkType": "ethereum",
  "devdoc": {
    "kind": "dev",
    "methods": {
      "approve(address,uint256)": {
        "details": "See {IERC721-approve}."
      },
      "balanceOf(address)": {
        "details": "See {IERC721-balanceOf}."
      },
      "getApproved(uint256)": {
        "details": "See {IERC721-getApproved}."
      },
      "isApprovedForAll(address,address)": {
        "details": "See {IERC721-isApprovedForAll}."
      },
      "name()": {
        "details": "See {IERC721Metadata-name}."
      },
      "owner()": {
        "details": "Returns the address of the current owner."
      },
      "ownerOf(uint256)": {
        "details": "See {IERC721-ownerOf}."
      },
      "renounceOwnership()": {
        "details": "Leaves the contract without owner. It will not be possible to call `onlyOwner` functions anymore. Can only be called by the current owner. NOTE: Renouncing ownership will leave the contract without an owner, thereby removing any functionality that is only available to the owner."
      },
      "safeTransferFrom(address,address,uint256)": {
        "details": "See {IERC721-safeTransferFrom}."
      },
      "safeTransferFrom(address,address,uint256,bytes)": {
        "details": "See {IERC721-safeTransferFrom}."
      },
      "setApprovalForAll(address,bool)": {
        "details": "See {IERC721-setApprovalForAll}."
      },
      "supportsInterface(bytes4)": {
        "details": "See {IERC165-supportsInterface}."
      },
      "symbol()": {
        "details": "See {IERC721Metadata-symbol}."
      },
      "transferFrom(address,address,uint256)": {
        "details": "See {IERC721-transferFrom}."
      },
      "transferOwnership(address)": {
        "details": "Transfers ownership of the contract to a new account (`newOwner`). Can only be called by the current owner."
      }
    },
    "version": 1
  },
  "userdoc": {
    "kind": "user",
    "methods": {
      "allocateNft(address)": {
        "notice": "Contract owner can create NFT at no cost Sends to specified address"
      },
      "allowTokenSale(uint256,uint256)": {
        "notice": "Allow token purchase"
      },
      "buyNft()": {
        "notice": "Allows any address to buy an NFT"
      },
      "buyOwnedToken(uint256)": {
        "notice": "Purchase Token https://stackoverflow.com/questions/67317392/how-to-transfer-a-nft-from-one-account-to-another-using-erc721"
      },
      "disallowTokenSale(uint256)": {
        "notice": "Disallow token purchase"
      },
      "getBalance()": {
        "notice": "Gets ETH held by contract"
      },
      "getEth()": {
        "notice": "Transfers ETH held by contract to contract owner"
      },
      "getNftByOwner(address)": {
        "notice": "Gets list of owners NFTs"
      },
      "getNftState(uint256)": {
        "notice": "Gets NFT state"
      },
      "getNftUsage(uint256)": {
        "notice": "Get remaining usage available for token"
      },
      "getOwner()": {
        "notice": "Get contract owner"
      },
      "getPrice()": {
        "notice": "Get NFT price"
      },
      "getUrl()": {
        "notice": "Get URL"
      },
      "isTokenAvailable(uint256)": {
        "notice": "Is token available for purchase"
      },
      "setNftState(uint256,uint16)": {
        "notice": "Sets NFT state"
      },
      "setPrice(uint256)": {
        "notice": "Sets NFT price"
      },
      "setUrl(string)": {
        "notice": "Sets URL"
      },
      "tokenURI(uint256)": {
        "notice": "Returns URI for specified tokenId"
      },
      "useToken(uint256)": {
        "notice": "Get remaining usage available for token"
      }
    },
    "version": 1
  }
}